{
  "contractName": "Todos",
  "abi": [
    {
      "constant": false,
      "inputs": [
        {
          "name": "todo",
          "type": "bytes32"
        }
      ],
      "name": "addTodo",
      "outputs": [],
      "payable": false,
      "stateMutability": "nonpayable",
      "type": "function"
    },
    {
      "constant": true,
      "inputs": [],
      "name": "getTodos",
      "outputs": [
        {
          "name": "",
          "type": "bytes32[]"
        }
      ],
      "payable": false,
      "stateMutability": "view",
      "type": "function"
    }
  ],
  "bytecode": "0x608060405234801561001057600080fd5b506101ab806100206000396000f30060806040526004361061004c576000357c0100000000000000000000000000000000000000000000000000000000900463ffffffff168063c33926cb14610051578063da2f6460146100bd575b600080fd5b34801561005d57600080fd5b506100666100ee565b6040518080602001828103825283818151815260200191508051906020019060200280838360005b838110156100a957808201518184015260208101905061008e565b505050509050019250505060405180910390f35b3480156100c957600080fd5b506100ec600480360381019080803560001916906020019092919050505061014a565b005b6060600080548060200260200160405190810160405280929190818152602001828054801561014057602002820191906000526020600020905b81546000191681526020019060010190808311610128575b5050505050905090565b6000819080600181540180825580915050906001820390600052602060002001600090919290919091509060001916905550505600a165627a7a7230582071c8c13e39ebcaf3300246afaf22df7bc76613105ebd4df811e01dfd4aa379050029",
  "source": "pragma solidity ^0.4.2;\n\ncontract Todos {\n    bytes32[] todos;\n\n\n    function addTodo(bytes32 todo) public {\n        todos.push(todo);\n    }\n\n    function getTodos() constant public returns (bytes32[]) {\n        return todos;\n    }\n}",
  "sourcePath": "/Users/matsudashinichi/solidity/dapps-react-redux-bbs/contracts/Todos.sol",
  "compiler": {
    "name": "solc",
    "version": "0.4.23+commit.124ca40d.Emscripten.clang"
  },
  "schemaVersion": "2.0.0",
  "updatedAt": "2018-05-27T00:29:54.411Z"
}